:100000000C94A1050C94C9050C94C9050C94C90560
:100010000C94C9050C94C9050C94C9050C94C90528
:100020000C94C9050C94C9050C9433120C94A212BB
:100030000C94C9050C94C9050C94C9050C94C90508
:100040000C94C9050C94C9050C94C9050C94C905F8
:100050000C94C9050C94C9050C94C9050C94D414CE
:100060000C94C9050C94C9050C94C9050C94C905D8
:100070000C94C9050C94C9050C94C9050C94C905C8
:100080000C941E150C94C9050C94C9050C94C90553
:100090000C94C9050C94C9050C94C9050C94C905A8
:1000A0000C94C9050C94C9050C94C9050000000006
:1000B000003E5B4F5B3E3E6B4F6B3E1C3E7C3E1CEE
:1000C000183C7E3C181C577D571C1C5E7F5E1C0034
:1000D000183C1800FFE7C3E7FF0018241800FFE7EB
:1000E000DBE7FF30483A060E2629792926407F05AE
:1000F0000507407F05253F5A3CE73C5A7F3E1C1CC4
:1001000008081C1C3E7F14227F22145F5F005F5F83
:1001100006097F017F006689956A6060606060946F
:10012000A2FFA29408047E040810207E2010080874
:100130002A1C08081C2A08081E101010100C1E0C7F
:100140001E0C30383E3830060E3E0E060000000011
:100150000000005F00000007000700147F147F14F8
:10016000242A7F2A1223130864623649562050003D
:1001700008070300001C2241000041221C002A1C29
:100180007F1C2A08083E0808008070300008080814
:100190000808000060600020100804023E51494534
:1001A0003E00427F400072494949462141494D3352
:1001B0001814127F1027454545393C4A49493141B9
:1001C000211109073649494936464949291E000087
:1001D00014000000403400000008142241141414DC
:1001E0001414004122140802015909063E415D59C8
:1001F0004E7C1211127C7F494949363E41414122D1
:100200007F4141413E7F494949417F090909013EFA
:10021000414151737F0808087F00417F4100204021
:10022000413F017F081422417F404040407F021C33
:10023000027F7F0408107F3E4141413E7F0909094A
:10024000063E4151215E7F09192946264949493216
:1002500003017F01033F4040403F1F2040201F3FDC
:100260004038403F63140814630304780403615961
:10027000494D43007F4141410204081020004141A3
:10028000417F04020102044040404040000307084F
:100290000020545478407F2844443838444444284B
:1002A000384444287F385454541800087E090218F2
:1002B000A4A49C787F0804047800447D400020407A
:1002C000403D007F1028440000417F40007C0478BE
:1002D00004787C080404783844444438FC18242406
:1002E0001818242418FC7C08040408485454542486
:1002F00004043F44243C4040207C1C2040201C3C03
:100300004030403C44281028444C9090907C4464F9
:10031000544C44000836410000007700000041368C
:10032000080002010204023C2623263C1EA1A16112
:10033000123A4040207A3854545559215555794144
:100340002154547841215554784020545579400C1B
:100350001E527212395555555939545454593955FC
:100360005454580000457C410002457D420001453F
:100370007C40F0292429F0F0282528F07C545545AC
:10038000002054547C547C0A097F4932494949323F
:100390003248484832324A4848303A4141217A3A54
:1003A00042402078009DA0A07D39444444393D401E
:1003B00040403D3C24FF2424487E4943662B2FFCCB
:1003C0002F2BFF0929F620C0887E09032054547979
:1003D000410000447D413048484A32384040227A4A
:1003E000007A0A0A727D0D19317D2629292F2826C7
:1003F0002929292630484D402038080808080808CF
:100400000808382F10C8ACBA2F102834FA00007B27
:10041000000008142A142222142A1408950022002D
:1004200095AA005500AAAA55AA55AA000000FF00E7
:10043000101010FF00141414FF001010FF00FF1024
:1004400010F010F0141414FC001414F700FF000056
:10045000FF00FF1414F404FC141417101F10101FD5
:10046000101F1414141F00101010F0000000001FC3
:10047000101010101F10101010F010000000FF10CE
:100480001010101010101010FF10000000FF1400CA
:1004900000FF00FF00001F10170000FC04F41414FC
:1004A0001710171414F404F40000FF00F7141414C8
:1004B00014141414F700F7141414171410101F1048
:1004C0001F141414F4141010F010F000001F101F6B
:1004D0000000001F14000000FC140000F010F010D9
:1004E00010FF10FF141414FF141010101F00000050
:1004F00000F010FFFFFFFFFFF0F0F0F0F0FFFFFF54
:100500000000000000FFFF0F0F0F0F0F38444438AA
:10051000447C2A2A3E147E02020606027E027E02E5
:1005200063554941633844443C04407E201E200604
:10053000027E020299A5E7A5991C2A492A1C4C7241
:1005400001724C304A4D4D303048784830BC625AC8
:10055000463D3E494949007E0101017E2A2A2A2A58
:100560002A44445F444440514A444040444A514034
:100570000000FF0103E080FF000008086B6B0836F5
:1005800012362436060F090F060000181800000066
:100590001010003040FF0101001F01011E00191D55
:1005A0001712003C3C3C3C0000000000080B00021D
:1005B00002020100090400000102020000052400FB
:1005C000100105240101010424020605240600018E
:1005D0000705810310004009040100020A00000021
:1005E00007050202400000070583024000000403E3
:1005F000090412010002EF0201404123368000018C
:100600000102030141726475696E6F204C4C430016
:1006100041726475696E6F204C656F6E6172646FB4
:1006200000F0F89C8E8783878E9CF8F00000FEFF18
:100630000303030303070EFCF80000FEFF0303039C
:100640000303070EFCF80000FFFF0000000000009D
:1006500000FFFF0000FEFF8383838383C7EE7C38A7
:100660000000F8FC0E07030303070EFCF800003F30
:100670007FE0C08080C0E07F3FFFFF0101010101FA
:100680000101FFFF0000FFFF0C0C0C0C1C3E77E388
:10069000C100007FFFC0C0C0C0C0E0703F1F0000AD
:1006A0001F3F70E0C0C0C0E0703F1F00007FFFC16F
:1006B000C1C1C1C1E3773E1C00001F3F70E0C0C054
:1006C000C0E0703F1F000000000001FFFF010000BC
:1006D00000D5F08D14A1C881CFD9F1AF2000080852
:1006E0003870E0C0C0E07038181818F8F8181818FA
:1006F0003878F8D89818181818181898D8F878383A
:100700003C7EE7C381000000181818FFFF000000BE
:100710003870E0FFFF0000001C0E07FFFF00000024
:100720001C0E070303070E1C1818181F1F18181893
:10073000181818191B1F1E1C1C1E1F1B191818180F
:1007400000000081C3E77E3C000000FFFF1818187E
:10075000000000FFFF070E1C000000FFFFE07038E4
:100760003C7EE7C3C3E77E3C181818FFFF18181833
:100770003870E0C183070E1C1C0E0783C1E070387F
:100780003870E0C0800000001C0E0703010000006C
:100790000000000103070E1C00000080C0E070385C
:1007A0005500AA005500AA00080855AA55AA55AA3E
:1007B00055AA000000000000000001010101010134
:1007C000010100000000000000FF80808080808028
:1007D0008080FF0000000000000000060E1C387042
:1007E0006000006070381C0E06000102050A152A20
:1007F00055AA80C060B058AC56AB55AA54A850A0BA
:100800004080D56A351A0D0603015500AA0055002F
:10081000AA00600E4A2AC00D4585900B1A8A30073F
:100820001525F00F50A0408010200008083C3C42E5
:100830004281BD99BD99BD81BD42423C3C10100032
:100840000000000000000000F8F8FCC0FFDEFFDE42
:10085000FFC0FFF8FC00F8000000000000000000EE
:1008600000000000000000001F1F3F03FF73FF7324
:10087000FF03FF1F3F001F000000000000000000FA
:100880000000000000000000F8F8FCC0FFDAFFDA0A
:10089000FFC0FFF8FC00F8000000000000000000AE
:1008A00000000000000000001F1F3F03FF5BFF5B14
:1008B000FF03FF1F3F001F000000000000000000BA
:1008C0000000000000000000F8F8FCC0FFCEFFCEE2
:1008D000FFC0FFF8FC00F80000000000000000006E
:1008E00000000000000000001F1F3F03FF7BFF7B94
:1008F000FF03FF1F3F001F0000000000000000007A
:10090000C080C080F0A0F0A0F020F0E0F0E0F0E0C7
:10091000F0E0F020F020F0A0F080F080C000C000F7
:10092000030103010F050F050F040F070F070F0742
:100930000F070F040F040F050F010F010300030041
:10094000C080C000F0A0F0A0F020F0E0F0E0F0E007
:10095000F0E0F020F0A0F0A0F000F080C000C000B7
:10096000030103000F050F050F040F070F070F0703
:100970000F070F040F050F050F000F010300030001
:10098000C080C080F0A0F020F020F0E0F0E0F0E0C7
:10099000F0E0F020F0A0F0A0F080F080C000C000F7
:1009A000030103010F050F040F040F070F070F07C3
:1009B0000F070F040F050F050F010F0103000300C0
:1009C0000000000000008080C0C0E0E0F0F0F8E827
:1009D000FCC4FEB0FE38FE90FE44FE007E00000027
:1009E00000007E327F397F1C7F0D7F237F173F0FF2
:1009F0001F070F03070103000100000000000000B3
:100A00000000000000008080C0C0E0E0F0F0F8E8E6
:100A1000FCC4FEA0FE08FE9CFE4CFE007E00000012
:100A200000007E327F397F107F057F237F173F0FC5
:100A30001F070F0307010300010000000000000072
:100A40000000000000008080C0C0E0E0F0F0F8E8A6
:100A5000FCC4FEB0FE38FE9CFE4CFE007E00000092
:100A600000007E227F097F1C7F0D7F237F173F0FB1
:100A70001F070F0307010300010000000000000032
:100A800000007E44FE90FE38FEB0FEC4FEE8FCF09E
:100A9000F8E0F0C0E080C00080000000000000002E
:100AA0000000000000000101030307070F0F1F17DC
:100AB0003F237F0D7F1C7F397F327F007E00000047
:100AC00000007E4CFE9CFE08FEA0FEC4FEE8FCF08A
:100AD000F8E0F0C0E080C0008000000000000000EE
:100AE0000000000000000101030307070F0F1F179C
:100AF0003F237F057F107F397F327F007E0000001B
:100B000000007E4CFE9CFE38FEB0FEC4FEE8FCF009
:100B1000F8E0F0C0E080C0008000000000000000AD
:100B20000000000000000101030307070F0F1F175B
:100B30003F237F0D7F1C7F097F227F007E00000006
:100B4000F71511241FBECFEFDAE0DEBFCDBF11E0F5
:100B5000A0E0B1E0ECE6FDE302C005900D92AE36F8
:100B6000B107D9F726E0AEE6B1E001C01D92A4328C
:100B7000B207E1F715E0C1EAD5E004C02197FE0114
:100B80000E94A91EC03AD107C9F70E9440160C94D2
:100B9000B41E0C940000809183010895EBEAF1E00B
:100BA000A0E0B8E000800EBC8111012C1197A0FDDF
:100BB000FDCF0192B9F70DB40895CF92DF92EF9275
:100BC000FF92CF93DF939B016F3F710511F008F007
:100BD000C1C18F3F910511F008F0BCC14091A30144
:100BE0005091A4016091A5017091A601E091A70127
:100BF000F091A801E817F9070CF048C0C4E0D0E074
:100C00006A017B01A1E0CA22DD24EE24FF24F094D6
:100C1000E094D094C094C11CD11CE11CF11CA4E050
:100C2000CA22DD24A8E0EA22FF247695679557952D
:100C300047954C255D256E257F25219709F731962F
:100C4000D9CFC4E0D0E06A017B01A3E1F694E79438
:100C5000D794C794AA95D1F7A1E0CA22DD24D194F4
:100C6000C194D108A9E0CA22DD240D2C000CEE08A5
:100C7000FF08440F551F661F771F4C255D256E2505
:100C80007F256F7077272197F1F631978E179F0791
:100C9000C4F2F093A801E093A701E091A901F091BB
:100CA000AA01E217F3070CF0A5C081EF9CE4A9E0CC
:100CB000B0E040FD03C080E090E0DC0141FF06C0F1
:100CC000CBEE8C27C9E99C27C2E0AC2742FF06C0C7
:100CD000C6ED8C27C3E39C27C5E0AC2743FF06C0C5
:100CE000CCEA8C27C7E69C27CAE0AC2744FF06C0A5
:100CF000C1E58C27CFEC9C27C4E0AC2745FF06C09C
:100D0000C2EA8C27CEE99C27C9E0AC2746FF06C083
:100D1000CDE48C27CDE39C27C3E0AC2747FF06C07A
:100D2000CAE98C27CAE79C27C6E0AC2750FF06C05B
:100D3000C4E38C27C5EF9C27CCE0AC2751FF06C04D
:100D4000C1E68C27CAEE9C27C9E0AC2752FF06C03B
:100D5000CBEC8C27C4ED9C27C3E0AC2753FF06C027
:100D6000C6E98C27C9EA9C27C7E0AC2754FF06C018
:100D7000CCE28C27C3E59C27CFE0AC2755FF06C00B
:100D8000C1E58C27C6EA9C27CEE0AC2756FF06C0FB
:100D9000CBEA8C27CCE49C27CDE0AC2757FF06C0DC
:100DA000CFE58C27C9E99C27CAE0AC2760FF06C0C5
:100DB000C7EB8C27C2E39C27C5E0AC2761FF06C0C8
:100DC000CEE68C27C5E69C27CAE0AC2762FF06C0AA
:100DD000C5ED8C27CAEC9C27C4E0AC2763FF06C096
:100DE0004AEA842745E9942749E0A4273196AC01D3
:100DF000BD0157CF2E173F070CF097C083E091E657
:100E0000A4E0B0E040FD03C080E090E0DC0141FFE1
:100E100006C0C6E08C27C2EC9C27C8E0AC2742FF86
:100E200006C0C5E08C27C4E89C27C1E0AC2743FF7F
:100E300006C0CAE08C27C8E09C27C3E0AC2744FF6B
:100E400006C0C4E18C27C0E19C27C6E0AC2745FF63
:100E500006C0C8E28C27C0E29C27CCE0AC2746FF46
:100E600006C0C9E58C27C0E49C27C8E0AC2747FF33
:100E700003C0CBEB8C27905850FF05C0C6E78C27EA
:100E8000C1E09C27AC2751FF05C0CCEE8C27C2E007
:100E90009C27AC2752FF06C0C8ED8C27C5E09C27D5
:100EA000C4E0AC2753FF06C0C0EB8C27CBE09C27E7
:100EB000C8E0AC2754FF04C0C9E68C27C7E19C27D3
:100EC00055FF04C0C2ED8C27CEE29C2756FF04C01C
:100ED000C4EA8C27CDE59C2757FF04C0C8E48C27C3
:100EE000CBEB9C2760FF06C0C0E98C27C6E79C2798
:100EF000C1E0AC2761FF06C0C0E28C27CDEE9C2785
:100F0000C2E0AC2762FF06C0C0E48C27CAED9C2774
:100F1000C5E0AC2763FF05C0805844EB94274BE045
:100F2000A4273197AC01BD0165CFF093AA01E093EE
:100F3000A9014093A3015093A4016093A50170936C
:100F4000A601842F8F70DF91CF91FF90EF90DF90FB
:100F5000CF9008958FEFF7CF4F925F926F927F926D
:100F6000AF92BF92CF92DF92EF92FF920F931F93B7
:100F7000CF93DF938C017B010E94DD05D82F87FF83
:100F800053C08FEFE816F80699F40F3F8FEF18075C
:100F900084F1013081E0180764F5C4E1011581E0B6
:100FA000180791F1C1E00F3F1F4F71F5C7E12CC049
:100FB000E11481E0F80699F40F3F8FEF1807CCF0A9
:100FC000013081E01807ACF4C5E1011581E0180794
:100FD000D9F0C9E00F3F1F4FB9F4C6E115C00115A4
:100FE00081E0180741F4C5E08FEFE816F10461F0E5
:100FF00058F0C8E109C00F3F1F4FD9F7CDE08FEF80
:10100000E816F10409F0A8F78C2FDF91CF911F911A
:101010000F91FF90EF90DF90CF90BF90AF907F90B7
:101020006F905F904F900895C82FC370C05F082ED7
:10103000000C990B9595879595958795813009F4C6
:1010400065C024F48823A1F1CD2FDECF823009F4CE
:101050008AC08330C9F74090A3015090A4016090EA
:10106000A5017090A601C090A701D090A801A09002
:10107000A901B090AA01B701C80101970E94DD053E
:101080004092A3015092A4016092A5017092A60122
:10109000D092A801C092A701B092AA01A092A90182
:1010A00087FDB2CF85958595813009F0ADCFCCCF46
:1010B0004090A3015090A4016090A5017090A601FA
:1010C000A090A701B090A801C090A901D090AA015A
:1010D000B70161507109C8010E94DD054092A3016A
:1010E0005092A4016092A5017092A601B092A8014D
:1010F000A092A701D092AA01C092A90187FD84CF36
:1011000085958595823009F49FCF7ECF4090A301CD
:101110005090A4016090A5017090A601C090A70115
:10112000D090A801A090A901B090AA01B701C80170
:1011300001960E94DD054092A3015092A4016092A5
:10114000A5017092A601D092A801C092A701B09209
:10115000AA01A092A90187FD57CF85958595833077
:1011600009F472CF51CF4090A3015090A401609038
:10117000A5017090A601C090A701D090A801A090F1
:10118000A901B090AA01B7016F5F7F4FC8010E940B
:10119000DD054092A3015092A4016092A5017092D6
:1011A000A601D092A801C092A701B092AA01A09274
:1011B000A90187FD29CF8595859509F445CF24CFD1
:1011C00090911706982329F490911606982381E0B0
:1011D00009F480E008953F924F925F926F927F9260
:1011E0008F929F92AF92BF92CF92DF92EF92FF9237
:1011F0000F931F93CF93DF9310E0842E912C322F07
:101200003770A32EB12CAFEFB0E02D0101C0440C1C
:101210003A95EAF7F12CF501EE19FF0901C0AA0F82
:10122000EA95EAF73A2EC22FC695C695C69530E8DC
:10123000C39FE0011124C80DD91DC555DE4F38E00C
:10124000639FF00111243296E00FF11F8E0F9F1F54
:10125000B401685F7F4F601B710BD12C8501085F63
:101260001F4F0E191F09E8E0F0E03F016A187B08E4
:101270005A2F5095A42FB0E0FB01C616D7060CF4E8
:10128000F601AE17BF077CF5FC01A4913991B0E0DF
:101290000E2C02C0B595A7950A94E2F7BB274E0124
:1012A000F1E08F1A9108FD010A2C01C0EE0F0A949B
:1012B000EAF7E327E4213E27F401308309301105E2
:1012C0007CF0283368F4E058FF4F062C02C0B59537
:1012D000A7950A94E2F7A52330813321A32BA0839D
:1012E0004F5F0196C7CFDF91CF911F910F91FF9074
:1012F000EF90DF90CF90BF90AF909F908F907F90B6
:101300006F905F904F903F900895FC0180919E01F7
:10131000882311F13FB7F89482E08093E90020918F
:10132000F200822F90E01816190614F481E090E084
:10133000882339F0289844E640939D014091F100BC
:101340004083222339F02091F200211103C02BE6C3
:101350002093E8003FBF08958FEF9FEF08952FB7C8
:10136000F89483E08093E9009091E800892F8072DF
:1013700095FF04C09091F20080E4891B2FBF08956F
:101380008091950181110DC082E08093910184E0EC
:1013900080939201109294011092930181E08093C6
:1013A000950181E991E0089540917D0150917E0180
:1013B00020917B0130917C0142175307B4F4909146
:1013C000E8009570E1F39091E80092FD19C08093D8
:1013D000F10080917D0190917E0101968F73992794
:1013E000892B19F48EEF8093E80080917D01909114
:1013F0007E01019690937E0180937D0181E00895A6
:1014000080E00895DF92EF92FF920F931F93CF93A6
:10141000DF93D82E8A01EB017B01E40EF51ECE1579
:10142000DF0559F0D7FE12C0FE0184910E94D40955
:1014300021968111F4CF0FEF1FEFC801DF91CF91FB
:101440001F910F91FF90EF90DF9008958881EECF6C
:101450000F931F93CF93DF931F92CDB7DEB782E038
:10146000898342E450E06CEA75E080E80E94020A59
:101470000E94C009DC0112960D911C910115110505
:1014800089F0D801ED91FC910280F381E02DBE013D
:101490006F5F7F4FC801099597FD04C0F801008573
:1014A0001185ECCF89810F90DF91CF911F910F9122
:1014B0000895615030F02091F100FC0120830196E5
:1014C000F8CF289884E680939D010895AF92BF924B
:1014D000CF92DF92EF92FF920F931F93CF93DF9300
:1014E0006C017B018B01040F151FEB015E01AE182F
:1014F000BF08C017D10759F06991D601ED91FC9151
:101500000190F081E02DC6010995892B79F7C5017D
:10151000DF91CF911F910F91FF90EF90DF90CF90CF
:10152000BF90AF900895CF93DF931F92CDB7DEB7F2
:101530006983DC01ED91FC910280F381E02D41E0B3
:1015400050E0BE016F5F7F4F09950F90DF91CF9103
:10155000089583E08093E9008091F200882319F0D8
:101560008AE38093E80008950E94AF0990E008950F
:10157000CF93DF931F92CDB7DEB7FC0184859585AD
:1015800097FD08C02FEF3FEF358724870F90DF913D
:10159000CF910895CE0101960E948509019719F413
:1015A000898190E0F3CF8FEF9FEFF0CF0F931F93E0
:1015B000CF93DF931F92CDB7DEB78C01FC018485FA
:1015C000958597FF0BC0CE0101960E948509019772
:1015D00071F4898190E0F80195878487F80184850A
:1015E00095850F90DF91CF911F910F9108958FEF07
:1015F0009FEFF1CFFC018485958597FD0BC09FB7C8
:10160000F89482E08093E9008091F2009FBF90E01F
:10161000019608959FB7F89482E08093E900809145
:10162000F2009FBF90E008953FB7F8948091770152
:1016300090917801A0917901B0917A0126B5A89B8B
:1016400005C02F3F19F00196A11DB11D3FBFBA2F54
:10165000A92F982F8827BC01CD01620F711D811D14
:10166000911D42E0660F771F881F991F4A95D1F799
:1016700008958F929F92AF92BF92CF92DF92EF9296
:10168000FF926B017C010E94140B4B015C01C114A1
:10169000D104E104F104B9F00E94140B681979092E
:1016A0008A099B09683E73408105910580F321E01A
:1016B000C21AD108E108F10888EE880E83E0981E6E
:1016C000A11CB11CE4CFFF90EF90DF90CF90BF90B2
:1016D000AF909F908F9008958F929F92AF92BF92FC
:1016E000CF92DF92EF92FF920F931F93CF93DF93EE
:1016F0006C017B018A0180910B01882309F45CC095
:1017000080919E01882309F457C08091810180FF58
:1017100005C08091E00082608093E000E801B12C78
:101720008AEFA82E93E0892E2AE3922E209711F4B7
:10173000BB20D9F10E94AF0981110AC0AA94AA2046
:10174000D9F161E070E080E090E00E94390BEECFCB
:101750008C171D0611F00CF08C2F9FB7F894809217
:10176000E9002091E80025FD02C09FBFDFCF282FB0
:1017700030E0C21BD30BF701815020F04191409320
:10178000F100FACFE20EF31EBB2021F09092E800A8
:10179000B12CEBCF8091E80085FDE7CF9092E80077
:1017A000BB24B394209709F3F3CF5D9884E680932C
:1017B0008001101611063CF081E090E0F601938361
:1017C000828310E000E0C801DF91CF911F910F915B
:1017D000FF90EF90DF90CF90BF90AF909F908F9051
:1017E000089520918D01E0918B01F0918C01CF0142
:1017F000029690938C0180938B01222319F085919E
:1018000094910895808191810895CF92DF92EF9213
:10181000FF92CF93DF930E94F10B811520E892078E
:1018200091F4809171008D7F8093710010929100EE
:101830004698479810928801DF91CF91FF90EF90E2
:10184000DF90CF90089521E020938801813020E837
:10185000920751F48091890190918A0190938C01B3
:1018600080938B010E94F10B97FD05C020916F01C1
:10187000222309F454C020916E01211150C021E0AF
:1018800020937001EC01DF77209709F04BC081E0D5
:101890008093710146983FE9C32E3FE0D32EE12C9F
:1018A000F12CCAEFD0E0E0910906F0910A06099503
:1018B000811103C081E080937101809170018823C0
:1018C00029F080917101882309F43FC047980E9454
:1018D000F10B0097F1F19C01DE010E94861EDC01F4
:1018E000CB0129E0B595A795979587952A95D1F7CE
:1018F000109290002AE020939100D0929900C0921B
:1019000098008093720190937301A0937401B09337
:101910007501809171008260809371008DCF10926B
:101920007001B0CF9E0150E040E060E472E48FE0CF
:1019300090E00E94321E69017A0181E0C81AD10844
:10194000E108F10810927101AECF4699BFCF479AD6
:10195000BECF8FEF9FEFDC01CBCF9C01E1E7F0E042
:1019600090819D7F908310928D01EBEFF5E0F093D5
:101970008C01E0938B01F0938A01E093890131831C
:1019800020837383628380E090E8958384830C9442
:10199000050C4F925F926F927F928F929F92AF92BF
:1019A000BF92CF92DF92EF92FF920F931F93CF934C
:1019B000DF934C015901FC2DC02FD0E0CE01880DE2
:1019C000991D181619060CF06CC020E882169104B7
:1019D0000CF067C09B012E0D311D121613060CF082
:1019E00060C0603471050CF05CC04115510509F40C
:1019F00058C0E62FE770FE2EDB0177FD179633E027
:101A0000B595A7953A95E1F73A2F77FF04C0FF20E7
:101A100011F03FEF3A0F662777276819790997FC8D
:101A200002C070E060E0803891050CF44BC090E893
:101A30009819961BA32F032E000CBB0B1A2F109581
:101A40003F3F0CF010E021E08E2D877009F420E07C
:101A5000E694E694E694E20EAE0DB11D19971CF0E3
:101A600028E0E22EE31AE11A310F20E83203D00118
:101A70001124A80DB91DA60FB71F019F600D711D80
:101A80001124460F571F0F2D0F2C000C110BF33094
:101A900009F41CC1C8F4F13009F4D0C0F23009F4E3
:101AA0007CC0DF91CF911F910F91FF90EF90DF905D
:101AB000CF90BF90AF909F908F907F906F905F90EE
:101AC0004F900895902FB5CFFA3FB1F1232F2E0DEF
:101AD000FB3F39F7321729F3BD0165557E4FD12CF5
:101AE000C12CC91608F0A4C0FA01EC0DFD1DE4914B
:101AF000F0E04F01002E02C0880C991C0A94E2F716
:101B000037FD06C0FB018081E82CE0948E218083A4
:101B1000FF2061F0373054F45B01F0E8AF0EB11CE8
:101B2000E92CE094F50180818E218083FFEFCF1AAC
:101B3000DF0A6F5F7F4FD5CF232F2E0D321709F4A9
:101B4000B0CFBD0165557E4FD12CC12CC91608F010
:101B500069C0FA01EC0DFD1DE491F0E04F01002E8B
:101B600002C0880C991C0A94E2F737FD04C0FB01FF
:101B7000808188298083FF2051F0373044F45B0155
:101B8000F0E8AF0EB11CF501808189298083FFEF59
:101B9000CF1ADF0A6F5F7F4FD9CF6FEF70E00F2C46
:101BA00002C0660F771F0A94E2F760957095772E52
:101BB000232F2E0D321709F474CFFD01E555FE4F8A
:101BC0006F01B12CA12CA91638F5FA01EA0DFB1D05
:101BD000E491F0E02F01002E02C0440C551C0A9441
:101BE000E2F737FD05C0F6018081862384298083D2
:101BF000FF2059F037304CF44601F0E88F0E911C6D
:101C0000F4018081872185298083FFEFAF1ABF0A05
:101C10008FEFC81AD80AD7CF3F5F4C0F5D1FA0586F
:101C2000BF4FC8CF3F5F4C0F5D1FA058BF4F86CF3F
:101C30003F5F4C0F5D1FA058BF4F4CCF6A0D7B1DFF
:101C4000232F2E0D321709F42CCFFD01E555FE4F41
:101C50006F01B12CA12CA91688F5FB01EA0DFB1D23
:101C60008490912C002E02C0880C991C0A94E2F7F3
:101C700080949094FA01EA0DFB1D6490712C002E63
:101C800002C0660C771C0A94E2F737FD05C0F60126
:101C90008081882186298083FF2049F037303CF4F9
:101CA000F601E058FF4F8081892187298083FFEF6B
:101CB000AF1ABF0A8FEFC81AD80ACDCF3F5F4C0FBB
:101CC0005D1F6C0F7D1FA058BF4FBCCFC92ED12CFC
:101CD000FA01E60FF71FA555BE4F00E810E00C19FA
:101CE0001D09CC19DD09BE01660F771F41E050E0E8
:101CF0006A010F2C01C0CC0C0A94EAF7592F2E2D43
:101D0000792ECF93DF93ED01EF96EF962296859093
:101D1000A590FF2059F08C9C4001AC9C50013730BD
:101D20002CF4E880B094EB20E928E99233233AF0D0
:101D3000EC90A094EA20E828ED920C94A00E119665
:101D40005A9529F72A9551F0572D33951124E60F0E
:101D5000F11DA00FB11DC00FD11DD9CFDF91CF91C3
:101D600011249FCE2D9A0895BC0190E080E00C9440
:101D7000390B8FB18095807F669B88601C9B846047
:101D8000089520E191E061FD94E060FD990F62FD0E
:101D90009295687F269FD0011124A80FA555BE4FAC
:101DA0008C9140FF03C0892B8C93089590958923D3
:101DB000FBCF2F923F924F925F926F927F928F92C2
:101DC0009F92AF92BF92CF92DF92EF92FF920F93CA
:101DD0001F93CF93DF93CDB7DEB728970FB6F89454
:101DE000DEBF0FBECDBF9E838D836A3061F5DC01FF
:101DF00055968C91B8E08B9F90011124ED81FE8166
:101E000081899289820F931F928B818B108A17860A
:101E100081E090E028960FB6F894DEBF0FBECDBFEC
:101E2000DF91CF911F910F91FF90EF90DF90CF90B6
:101E3000BF90AF909F908F907F906F905F904F90EA
:101E40003F902F9008956D3019F32D813E81388792
:101E50002F83D9011F960D911C91509700381105C1
:101E60000CF07CC05196AD90BC90B0E4AB16B104C0
:101E70000CF074C0F901258825E0C801229E800D70
:101E8000911D1124181619060CF068C0622C712CD3
:101E9000C30133E0880F991F3A95E1F78A0D9B1D26
:101EA000181619060CF05AC0F489FB83AF81B88567
:101EB0005396BC91BC83629FB0011124FB01E45591
:101EC000FF4F2F011982F2018491F981F53009F455
:101ED00080E0450128E02A83A82FB0E0BE83AD83CF
:101EE0003C8080FF3B80311004C0BB81EC81BE1779
:101EF000F9F078018E2D801B8215D0F4D12CC12CE5
:101F0000C21490F4F0E8EF16F10450F4B601680D35
:101F1000791D6034710520F4432DC7010E94C10E64
:101F20002FEFC21AD20AECCF3FEFE31AF30AE2CF47
:101F30008D819E81959587959A8191509A83860C83
:101F4000971C9111C9CFA981AF5FA983BFEF4B1A2D
:101F50005B0A060D171DA63009F0B5CFEF81F88595
:101F60002589422F50E087859089F6E02F9F800DCC
:101F7000911D1124AF81B88550969C938E931F9725
:101F800056962C915697222309F442CF6AEF6403A8
:101F90009001659F300D112420583F4F28173907B5
:101FA0000CF036CFED91FC9111970190F081E02D6E
:101FB0006AE0CD0109952CCF0895089590E080E066
:101FC0000895EF92FF920F931F93CF93DF93982F73
:101FD000B82FB17080FF03C0413251052CF092FF41
:101FE0001FC04F315105E4F09B012D5131092630BE
:101FF0003105B0F46F31710521F440FF0AC083E070
:1020000010C062327105D9F36032710521F440FDD0
:1020100005C081E006C06D317105D9F785E001C0CA
:1020200080E0C92FC87093FF03C0613271052CF0A6
:1020300091FF0FC06F31710564F09A012D51310984
:102040002630310530F44F315105C1F460FF0AC12B
:1020500084E0A92FA072D92FD07194FF39C09B01C1
:10206000241B350BF9017D97379790F52032310508
:10207000B1F486E040FD2CC081E02AC08111D1C0BE
:102080004232510529F34032510521F460FD05C06B
:1020900081E0DFCF4D315105D9F782E0DACF2D3124
:1020A000310509F0C3C0882371F181E06F337105F8
:1020B00029F491FF03C0AA2309F4A3C041155105D7
:1020C00019F04330510521F4BB2311F097FF1DC0D7
:1020D0009A01260F371F192F107496FF1EC0FB019F
:1020E000FF96E41BF50B7F010CE1E01AF10807E015
:1020F000E016F10490F4EF31F10549F486E040FD7B
:102100000CC081E00AC08AE0D1CF85E0E1CFEC319C
:10211000F10589F48111F5CF8AE097FF29C0F90113
:102120007C97379728F52F313105E1F487E040FDA2
:102130001FC081E01DC0B29721F7882389F081E09C
:102140006115710521F06330710509F05CC0CC2385
:1021500009F459C097FF80C04F33510501F757C0AC
:1021600088E0EECF2C313105B1F48111E2CF8BE064
:10217000AA2309F46AC0F901EC55F109379708F070
:1021800064C02F5331092032310519F587E040FD35
:102190005CC081E05AC02232310559F68823B9F07B
:1021A00081E06115710519F06330710521F4CC23CC
:1021B00011F0112391F14115510519F043305105EA
:1021C000B9F6BB23A9F2D111D3CF83E0D1CF89E0F7
:1021D000E8CF2D31310591F5882389F081E06F3307
:1021E000710521F491FF02C0DD23C9F04F33510581
:1021F00061F592FF2AC0111128C085E026C08BE04E
:10220000EECF84E05BCF4F33510509F086CF92FFCC
:1022100084CFA11182CF83E080CF84E0CCCF82E055
:10222000E5CF4032510509F033CF30CF23323105AD
:1022300009F022CF811120CF88E04ACF2332310527
:1022400009F0A7CF8111A5CF89E0DF91CF911F9130
:102250000F91FF90EF90089582E04F33510509F000
:1022600087CFD5CF882309F40ECF12CFE1E7F0E076
:1022700080818D7F808310928D01EBEFF5E0F093EC
:102280008C01E0938B01F0938A01E09389018AEE3F
:102290009AE09183808384E190E0938382832DE4AC
:1022A0003AE035832483978386832DE239E03187B2
:1022B0002087938782870C94050C0C941C1E0E9427
:1022C000AF1EFB0101900020E9F73197AF01461BDB
:1022D000570BDC01ED91FC910280F381E02D099414
:1022E0008F929F92AF92BF92EF92FF920F931F93A4
:1022F000CF93DF93CDB7DEB7A1970FB6F894DEBFCB
:102300000FBECDBF7C01FA01CB0119A2223008F427
:102310002AE08E010F5D1F4F822E912CB12CA12C33
:10232000BF01A50194010E94641EF901CA016A302F
:102330000CF5605DD8016E938D01232B242B252B8A
:1023400079F790E080E0109721F0BD01C7010E946D
:102350006111A1960FB6F894DEBF0FBECDBFDF911D
:10236000CF911F910F91FF90EF90BF90AF909F90F2
:102370008F900895695CDECFCF92DF92EF92FF924B
:10238000CF93DF930E94C41D2EEF3FEF4FE050E04C
:102390000E94321E6B017C012FEFC21AD20AE20AA0
:1023A000F20A80E0EBEAF1E081118FEF00248193E3
:1023B0008193819381930394D1F7EDE0F6E0128A43
:1023C000118A108A178667E471E0CF010E946111BB
:1023D0006BE571E08DE096E00E9461116EE571E0C1
:1023E0008DE096E00E94611120E1B701A6018DE029
:1023F00096E00E9470116BE571E08DE096E00E941E
:10240000611180E00E94CE0564EF71E080E090E011
:102410000E94390BCFE9D1E0C882D982EA82FB82DF
:10242000CC82DD82EE82FF82198618861B861A8690
:1024300065E671E08BEA95E00E946111488159815F
:102440006A817B8120E18BEA95E00E9470116BE547
:1024500071E08BEA95E0DF91CF91FF90EF90DF90F4
:10246000CF900C9461111F920F920FB60F9211240E
:102470008F939F938091E1009091E100937F9093DF
:10248000E10083FF0FC01092E90091E09093EB0010
:102490001092EC0092E39093ED0010929E0198E070
:1024A0009093F00082FF22C093E09093E900909116
:1024B000F200992319F09AE39093E800909180013B
:1024C000992341F090918001915090938001911156
:1024D00001C05D9A90919D01992341F090919D01D9
:1024E000915090939D01911101C0289A84FF18C0CA
:1024F0008091E2008E7E81608093E2008091E10015
:102500008F7E8093E100809181018E7E8061809337
:1025100081019F918F910F900FBE0F901F90189582
:1025200080FFF7CF8091E2008E7E80618093E20091
:102530008091E1008E7E8093E100809181018E7E0A
:102540008160E5CF1F920F920FB60F921124CF92A8
:10255000DF92EF92FF920F931F932F933F934F932E
:102560005F936F937F938F939F93AF93BF93EF93FB
:10257000FF93CF93DF93CDB7DEB76C97DEBFCDBFB0
:102580001092E9008091E80083FF25C068E0CE0149
:1025900045960E94590A82EF8093E8008D8987FF53
:1025A00039C09091E80090FFFCCF982F907609F009
:1025B00034C19E894F89588D2F89F88C911131C073
:1025C000803861F5809182018093F1001092F100D2
:1025D0008EEF8093E8006C960FB6F894DEBF0FBEC6
:1025E000CDBFDF91CF91FF91EF91BF91AF919F91BF
:1025F0008F917F916F915F914F913F912F911F919B
:102600000F91FF90EF90DF90CF900F900FBE0F9043
:102610001F9018959EEF9093E800C7CF1092F1009D
:10262000D5CF913059F48111D3CF4130510581F686
:10263000809182018D7F80938201CACF933049F4CB
:102640008111C6CF4130510519F680918201826017
:10265000F2CF953041F48091E80080FFFCCF2068F4
:102660002093E300B5CF963009F0A9C00B8D1C8DE7
:1026700022E01092E90010927E0110927D01F21288
:102680002EC010927C0110927B010E94280A1F82AA
:1026900099E09983FA8291E09E8390EA98879AEF75
:1026A000998720917D0130917E01275F3F4F3C83C8
:1026B0002B838D831092E90010927E0110927D0190
:1026C00010937C0100937B0149E050E0BE016F5FF5
:1026D0007F4F80E00E94020A0E94280A79CF10935F
:1026E0007C0100937B010E94C009DC0112960D91D0
:1026F0001C910115110509F451C1D801ED91FC910E
:102700000480F581E02DBE016B5E7F4FC801099505
:10271000009709F03EC1F80100851185EACFF3E08A
:10272000FF120EC08F89882309F440C0823061F403
:1027300040E860E180E196E00E947F15811148CF7A
:1027400081E28093EB0047CF813029F440E86BE0D1
:1027500084E096E0F1CF833099F70E94C009DC0154
:102760001296ED90FC908E010F5F1F4F6801E114EF
:10277000F10479F0D701ED91FC910680F781E02D0D
:10278000B801C7010995080F111DF701E084F18414
:10279000EECFD8011C92F60101900020E9F73197A5
:1027A000BF016C197D0940E0C601C6CF6EEE75E031
:1027B000FB01449150E080E80E94020A09CF973063
:1027C00009F4BECF983021F481E08093F10000CF6E
:1027D000993009F0FDCE837009F0B2CFEBE1F1E062
:1027E00081E031E096E32191222371F08093E900AA
:1027F0003093EB00DF0111972C912093EC00909324
:10280000ED008F5F873079F78EE78093EA001092B2
:10281000EA008F8980939E01DBCE8B8D9C8D109278
:10282000E90010927E0110927D0190937C018093CB
:102830007B01898D811192C08E899D89913A49F4DD
:10284000813209F07DCF47E050E064E071E080E044
:10285000B3CF913209F074CF833269F48F89988DA8
:10286000B0E0A0E08093000190930101A0930201E9
:10287000B0930301ADCE803269F48091E80082FF0D
:10288000FCCF67E084E091E00E94590A8BEF8093CF
:10289000E8009ECE823209F09BCE8F8980930B0197
:1028A000EEEFFFE7859194918B3F9C4D51F1E0E075
:1028B000F8E08091040190910501A0910601B0918A
:1028C0000701803B9440A105B105F1F480910B0113
:1028D00080FD1AC0EE3F8AE0F80789F587E797E7A1
:1028E000918380838091600080937F0188E19BE0E9
:1028F0000FB6F894A895809360000FBE9093600087
:1029000067CEEEEFFAE0D5CF808191818737974788
:1029100009F05ECEA8958091600088618093600088
:1029200080917F0180936000EE3F2AE0F20789F0FA
:102930008091FE0A9091FF0A9183808349CE808125
:1029400091818737980751F29093FF0A8093FE0A8E
:10295000C5CF1092FF0A1092FE0A3ACE0E94C0091B
:10296000DC0112960D911C910115110509F4E8CEB8
:10297000D801ED91FC910190F081E02DBE016B5EDC
:102980007F4FC8010995811123CEF801008511857B
:10299000EBCF181619060CF41BCED2CEF1E0FF12C5
:1029A000BECE62EF75E004CF1F920F920FB60F926A
:1029B00011242F933F938F939F93AF93BF93809155
:1029C000840190918501A0918601B0918701309199
:1029D000760123E0230F2D3758F50196A11DB11D77
:1029E000209376018093840190938501A0938601C2
:1029F000B09387018091770190917801A09179013E
:102A0000B0917A010196A11DB11D80937701909339
:102A10007801A0937901B0937A01BF91AF919F9112
:102A20008F913F912F910F900FBE0F901F9018958F
:102A300026E8230F0296A11DB11DD2CF1F920F923F
:102A40000FB60F9211242F933F934F935F936F9381
:102A50007F938F939F93AF93BF93EF93FF93809157
:102A6000720190917301A0917401B0917501892B4D
:102A70008A2B8B2B09F440C08091710181110BC00E
:102A800088B190E4892788B980917001882319F072
:102A900088B1805888B98091720190917301A0919A
:102AA0007401B0917501181619061A061B069CF4DC
:102AB0008091720190917301A0917401B0917501A0
:102AC0000197A109B1098093720190937301A093BA
:102AD0007401B0937501FF91EF91BF91AF919F91F8
:102AE0008F917F916F915F914F913F912F910F90B7
:102AF0000FBE0F901F9018950E94050CECCFEF921F
:102B0000FF920F931F93CF93DF93F82E192FE62E8A
:102B1000042F81E0860F880F0E94D40983E00E9471
:102B2000D409CF2DD12FEC0EFD2EF11CCE15DF05D3
:102B3000B9F007FF13C0FE0184910E94D409182F39
:102B400080E00E94D409812321968111EFCFDF918B
:102B5000CF911F910F91FF90EF9008958881EDCF55
:102B600081E0F5CF0F931F93CF93DF938C0181E02A
:102B700090E00E945D1180FF32C08AE090E00E94E8
:102B80005D119FEF980F9E3F50F522E330E0D80192
:102B900050963C932E931F9728E330E052963C9337
:102BA0002E935197CBE0D0E0D801ED91FC910190AC
:102BB000F081E02D682FC8010995CE010E945D11BA
:102BC0002196C131D10581F780E00E94CE0588EEC3
:102BD00093E0DF91CF911F910F910C94B40EDF9190
:102BE000CF911F910F91089504970C94B215EBEAC1
:102BF000F5E01382128288EE93E0A0E0B0E08483D7
:102C00009583A683B78385E291E0918380838FEFDC
:102C10009FEF95878487EDE0F6E01382128211869C
:102C2000128680E1838710861782158687E391E0FC
:102C30009183808385E491E095838483108A17864D
:102C4000128A118A81E0838B148A858B168A8BEC19
:102C500095E090930A068093090680E090E89093AF
:102C600008068093070646983E9A47983F9A8091B7
:102C7000150180930C068091140180930B06089532
:102C8000CF93DF93CDB7DEB766970FB6F894DEBF6C
:102C90000FBECDBF789484B5826084BD84B5816059
:102CA00084BD85B5826085BD85B5816085BD809117
:102CB0006E00816080936E0010928100809181008F
:102CC0008260809381008091810081608093810087
:102CD000809180008160809380008091910082606B
:102CE0008093910080919100816080939100809108
:102CF00090008160809390008091C10084608093F7
:102D0000C1008091C10082608093C1008091C100A8
:102D100081608093C1008091C30081608093C30073
:102D20008091C00082608093C0008091C200816069
:102D30008093C20080917A00846080937A008091B1
:102D40007A00826080937A0080917A00816080931B
:102D50007A0080917A00806880937A0010929E01B8
:102D600010928201109281018091D700816080933E
:102D7000D70080EA8093D80089B5806189BD89B584
:102D8000826089BD09B400FEFDCF61E070E080E0A3
:102D900090E00E94390B8091D8008F7C80618093F5
:102DA000D8008091E000807F8093E0008091E10076
:102DB0008E7E8093E1008DE08093E200559A209A08
:102DC00081EC80937C0085B1806F85B984B1877E6A
:102DD00084B984B1876E84B95E9A5F988AB1806D38
:102DE0008AB9769A6E9881B3806F81BB899880B3D7
:102DF0008D7080BB80E58CBD81E08DBD85E090E06D
:102E00000E94B40E5F9A85E090E00E94B40E5E9836
:102E10005C98E1EDF6E08EED96E024912EBD000089
:102E20000DB407FEFDCF31968E179F07B1F75C9A60
:102E300081E88093640080916500816080936500E3
:102E400080E00E94CE050E94B90E87FF15C05C98F5
:102E500085EA8EBD00000DB407FEFDCF5C9A2E986A
:102E60002F982D988091640080628093640081E0A7
:102E700083BF889513BEFCCF0E94B90E82FF48C065
:102E80002D980E94B90E84788438E1F40E94B20E25
:102E900088EC90E00E94B40E2F9882E090E00E94AF
:102EA0001C1E8F3F29F06FEF82E090E00E94241EED
:102EB00084EF91E00E94B40E2F9A0E94B90E84789C
:102EC0008438D9F30E94B90E84718431E1F40E94F0
:102ED000B20E88EC90E00E94B40E2E9882E090E052
:102EE0000E941C1E882329F060E082E090E00E948E
:102EF000241E84EF91E00E94B40E2E9A0E94B90E17
:102F000084718431D9F388EC90E00E94B40EB4CF80
:102F10000E94B20E82E090E00E945D11882309F4C5
:102F200054C03E9A3F9A81E08093830181E090E013
:102F30000E945D11082F0470702E81FF13C00111D3
:102F40002E9860EF262E33243A9408E010E07CE6B9
:102F5000E72EF12C0E94B90E86FF3CC02E9A2F9AC4
:102F60000E94B20E82E390E00E94B40E0E94B90E5D
:102F70008111F8CF81E2809318068FEF9FEF909335
:102F8000B8058093B7050E94BC118FB7F8944091A3
:102F900084015091850160918601709187018FBFF6
:102FA00080911906342F381B832F90911A0699238C
:102FB00009F4B2C030931B0610921A0680E090E02C
:102FC000892B19F30E940000E0CF109283013E98F4
:102FD0003F98ACCF772031F024E02216310411F471
:102FE0002E9A2F9881E00E94CE05910137FE04C0F1
:102FF000222733272219330927703327C10137FCD1
:10300000079653E0959587955A95E1F737FE05C0E9
:103010000197A801421B530B9A01BC017695762FAC
:1030200066277795679565557E4FB0E0A0E028014B
:10303000421A530A8F3F5FEF95070CF446C048E5EC
:1030400050E0FD01E758F94F5F014B01F0E88F0EAA
:10305000911C8F3F9807C9F0F501E41BF50B6490B4
:103060006701C41AD50AC60ED71EE62DF0E0022E5F
:1030700002C0EE0FFF1F0A94E2F7FE83ED83F60114
:103080006080FD816F2AF601608221153105C9F04B
:10309000F501E41BF50B64906701C41AD50AC80C4E
:1030A000D91CE62DF0E0042C02C0F595E7950A94B2
:1030B000E2F7FE83ED83F6016080FD816F2AF60161
:1030C00060824150510909F0C4CF0196A85ABF4F00
:1030D00060587F4FA03BB10509F0ACCF80E00E9463
:1030E000CE058FE090E00E94B40EFFEF2F1A3F0A4A
:1030F00029E12216310409F02DCF772011F02F9A03
:103100002D9880E991E00E94B40E0E94B20E8DE0ED
:1031100096E00E94B21526CF90911806391748F410
:103120008F5F891708F04ACF41E043BF889513BEEF
:1031300045CF81E080931A064093190680911406CA
:103140009091150601969093150680931406809130
:103150001606809317060E94B90E8093160680907B
:10316000100190901101A0901201B0901301C09035
:103170000C01D0900D01E0900E01F0900F01B5010F
:10318000A401BBE07595679557954795BA95D1F71A
:10319000D701C6011BE0B595A795979587951A9518
:1031A000D1F7BA010E94AC0787FDD4C0082E000CED
:1031B000990B8E5E974FFC018491882309F4CDC052
:1031C00032E0B594A794979487943A95D1F7F4E0B8
:1031D0008F0E911CA11CB11CB501A401E3E07595F3
:1031E000679557954795EA95D1F74F7350E0F2E010
:1031F000F594E794D794C794FA95D1F704E0C00EFC
:10320000D11CE11CF11CA3E0F594E794D794C7947A
:10321000AA95D1F76C2D6F7370E00E94E10F89833E
:103220002091900112169CF465E1621B70E0809180
:103230001406909115060E94951E892B41F48091E9
:103240008F01823009F48CC08F5F80938F011981C8
:10325000111106C022300CF485C02150209390013A
:1032600088E00E94E008882361F08091900183301B
:103270000CF07AC0109290010E94B90E84FD0E9459
:10328000BC1184E00E94E0088823F1F08091900155
:10329000082E000C990B029621E030E009810023F2
:1032A00011F030E020E0820F931F8531910514F07A
:1032B00084E190E080939001843131F068E270E025
:1032C00081E290E00E94AD0C80E40E94E008882337
:1032D00051F080918E01873009F450C08F5F809348
:1032E0008E010E94361180E20E94E008882351F08E
:1032F00080918E01882309F443C0815080938E0110
:103300000E9436118091100190911101A09112013B
:10331000B0911301109190011D8B40910C015091BF
:103320000D0160910E0170910F01E0918E0110E08E
:10333000E83008F0AAC0F0E0EE55F64E10918F018B
:103340000C94A91EC219DF19041A1F1A0B1C251C84
:10335000481C621C1CE0198363CF0CE0098360CF1A
:1033600080E073CF20E07ACF8250809390016EE1AD
:1033700070E08BE092E00E94AD0C7ECF80E0AFCF9A
:1033800087E0BCCF22E0211B122F2D8933E02302DE
:10339000A0011124052E000C660B770B841B950BE6
:1033A000A60BB70B8093100190931101A09312010B
:1033B000B093130180E280930C068CE264C028E095
:1033C000211B122FED89CE2ECC0CDD080D2C000C0C
:1033D000EE08FF088C199D09AE09BF098093100102
:1033E00090931101A0931201B09313014C0D5D1D38
:1033F0006E1D7F1D40930C0150930D0160930E01D3
:1034000070930F0184E0D7CF1D5FFD8903E0F002C8
:10341000C0011124092E000CAA0BBB0B840F951FB1
:10342000A61FB71F80930C0190930D01A0930E016E
:10343000B0930F0184E080930C0688E124C0175FED
:103440002D89C22ECC0CDD080D2C000CEE08FF08D7
:103450008C0D9D1DAE1DBF1D809310019093110119
:10346000A0931201B09313014C0D5D1D6E1D7F1DC5
:1034700040930C0150930D0160930E0170930F0166
:1034800084E080930C0680930B0680911501909147
:103490000C06891708F03BC28F5F8093150180915D
:1034A000140190910B06891708F036C28F5F809344
:1034B00014018091100190911101A0911201B0911D
:1034C00013018F839887A987BA87909114019B87EE
:1034D0008F819885A985BA8542E0B595A79597957E
:1034E00087954A95D1F79C01AD016B85261B310963
:1034F0004109510929833A834B835C8380910C01F4
:1035000090910D01A0910E01B0910F018D879E87C2
:10351000AF87B88B90911501998B4D845E846F8431
:10352000788862E075946794579447946A95D1F7C8
:10353000491A510861087108A42DA7702A2E022F7C
:1035400007707301620179E0F594E794D794C7940A
:103550007A95D1F749015A01E9E0B594A794979477
:103560008794EA95D1F7DA01C901801B9109A10975
:10357000B109F3E0B595A79597958795FA95D1F799
:10358000E82FEF73EA8BD301C20182199109A109D7
:10359000B10923E0B595A795979587952A95D1F719
:1035A000F82FFF73FD83B401C6010E94AC07312CD4
:1035B00087FD06C0E82F880FFF0BEE5EF74F3490B3
:1035C0002D81203108F0B5C1C6010197B4010E94D8
:1035D000AC0787FFA6C11E8AF02ED12C88E0B82E3A
:1035E000B218982E901A89819A81AB81BC818D0D79
:1035F000911DA11DB11D8F199109A109B10933E0D8
:10360000B595A795979587953A95D1F78F738824A7
:103610008394AA898A1708F0812C022DA12CE82F07
:10362000F0E0FC8BEB8BD301C2018A0D911DA11D33
:10363000B11D801B9109A109B10923E0B595A7959A
:10364000979587952A95D1F78F7391E0FD818F1714
:1036500008F090E0892A9E89811001C0932D99235A
:1036600009F49CC1682F70E04B895C89892F0E9406
:10367000E10F90E5C92EEF2C2D2D4A2D682F88EAF9
:1036800097E00E94EB088B2DA11088E0A80E00E0C7
:103690002FE42A1540F6892DD11088E0D80EF12CA0
:1036A0003FE33D1508F09FCF4B85642F70E05989AB
:1036B000852F90E0EDE3F8E00491EEE3F8E0E4908C
:1036C0004FE358E01123F9F021E030E04E2D477030
:1036D00011F430E020E04E2D469546954695240F96
:1036E000311D029FF001039FF00D1124212F30E0C6
:1036F000220F331FE29FA001E39F500DF29F500D58
:103700001124415C574FE3E0CE2E30E020E00E94D0
:10371000C90C0F81188529853A85BB2737FDBA95D5
:10372000A32F922F812F0D851E852F85388977270E
:1037300037FD7A95632F522F412F142F1770912E3A
:103740005A0128E1A21AB108AC01405251095A832A
:103750004983F501B3E0F595E795BA95E1F7FE8366
:10376000ED83182F17701D8710E088E0882E8918C8
:10377000F82E2D85F21AC980DA80C10ED11CB6014F
:1037800043E0759567954A95E1F78D819E810E948A
:10379000AC074090A3015090A4016090A5017090E7
:1037A000A6014091A7015091A80158874F838091AD
:1037B000A9019091AA019C878B879D85C91AD10880
:1037C000160153E0359427945A95E1F7092D60E5E9
:1037D000D62ED7FCE5C0C5018D0D911D801B91092A
:1037E00080559109B10123E0959587952A95E1F7D8
:1037F0000E94AC0730E8C32EED84212F4D2D682F99
:103800008EED96E00E94EB08A0E5882DDA1288E0A4
:10381000D80E00E0DECF3D8963E03602A00111241E
:10382000052E000C660B770B840F951FA61FB71F84
:103830008093100190931101A0931201B093130192
:1038400080E280930C0684E01ECE1A5FED89CE2EB6
:10385000CC0CDD080D2C000CEE08FF088C0D9D1D16
:10386000AE1DBF1D8093100190931101A093120112
:10387000B09313014C195D096E097F0940930C0147
:1038800050930D0160930E0170930F018CE3D9CF1B
:1038900085E0811B182FFD8903E0F002C00111248F
:1038A000092E000CAA0BBB0B481B590B6A0B7B0B98
:1038B00040930C0150930D0160930E0170930F0122
:1038C0008CE3B9CD2BE0211B122F2D89C22ECC0CFD
:1038D000DD080D2C000CEE08FF088C199D09AE09BF
:1038E000BF098093100190931101A0931201B0932E
:1038F00013014C195D096E097F0940930C01509327
:103900000D0160930E0170930F018CE354CD981755
:1039100008F0C5CD8150C1CD981708F0CACD8150AF
:10392000C6CDE82F880FFF0BEE5EF74F34913E8B2C
:1039300053CE4D81413378F0C6010196B4010E9407
:10394000AC0787FD48CEE82F880FFF0BEE5EF74FE0
:1039500054915E8B41CE6A89603180F4B40161502C
:103960007109C6010E94AC0787FD35CEE82F880F8C
:10397000FF0BEE5EF74F84918E8B2ECEB4016F5FFE
:103980007F4FC6010E94AC0787FD25CEE82F880F28
:10399000FF0BEE5EF74F94919E8B1ECE8CE069CEAE
:1039A0004092A3015092A4016092A5017092A601D9
:1039B000EF81F885F093A801E093A7012B853C8562
:1039C0003093AA012093A9018F2D111188E0180FBF
:1039D0001D86103408F4CFCEEBEFF1E091E3915067
:1039E00059F4EBE7F5E091E3915061F08191DF014B
:1039F000119780688C93F8CF8191DF0111978160D6
:103A00008C93EDCF10E000E041E0B80180E590E05C
:103A10000E94C10E0F5F1F4F00341105A9F710E07F
:103A200000E041E0B8018FE790E00E94C10E0F5F17
:103A30001F4F00341105A9F78091140690911506C7
:103A40008F709927089790F4EBE2F8E00491ECE28C
:103A5000F8E0E49083E0C82E30E020E04DE258E04A
:103A60006CE170E084E690E00E94C90C1D8911169B
:103A7000DCF580918801811137C02DEF1202C00161
:103A80001124805B9F4F62E31602A00111244F5B5B
:103A90005F47209171002D7F2093710010928D015E
:103AA000ABEFB5E0B0938C01A0938B01B0938A018A
:103AB000A09389015093FC054093FB05EAE0F0E0F8
:103AC000F093FE05E093FD05109200061092FF05AD
:103AD000909302068093010680E090E8909304069C
:103AE000809303060E94050C80E00E94CE0566CA02
:103AF0008F929F92AF92BF92CF92DF92EF92FF92FE
:103B0000CF93DF93EC01688179818A819B81611574
:103B100071058105910521F464E279ED8BE597E06B
:103B20002DE133EF41E050E00E94321E49015A017D
:103B30009B01AC01A7EAB1E40E94511E6B017C011C
:103B4000ACEEB4EFA50194010E945F1EC60ED71E15
:103B5000E81EF91EF7FE06C081E0C81AD108E10888
:103B600080E8F80AC882D982EA82FB82C701B601DE
:103B70009F77DF91CF91FF90EF90DF90CF90BF9034
:103B8000AF909F908F9008958F929F92AF92BF9227
:103B9000CF92DF92EF92FF92609116017091170120
:103BA00080911801909119016115710581059105A8
:103BB00021F464E279ED8BE597E02DE133EF41E00C
:103BC00050E00E94321E49015A019B01AC01A7EA54
:103BD000B1E40E94511E6B017C01ACEEB4EFA50173
:103BE00094010E945F1EC60ED71EE81EF91EF7FE46
:103BF00006C081E0C81AD108E10880E8F80AC0923E
:103C00001601D0921701E0921801F0921901C70134
:103C1000B6019F77FF90EF90DF90CF90BF90AF906D
:103C20009F908F9008956093160170931701809371
:103C30001801909319010895F999FECF92BD81BDA5
:103C4000F89A992780B50895262FF999FECF1FBAC3
:103C500092BD81BD20BD0FB6F894FA9AF99A0FBEB5
:103C600001960895052E97FB1EF400940E94491EAC
:103C700057FD07D00E94641E07FC03D04EF40C943D
:103C8000491E50954095309521953F4F4F4F5F4FBE
:103C9000089590958095709561957F4F8F4F9F4FB8
:103CA00008950E94861EA59F900DB49F900DA49F1D
:103CB000800D911D11240895B7FF0C94511E0E9490
:103CC000511E821B930B0895A1E21A2EAA1BBB1B47
:103CD000FD010DC0AA1FBB1FEE1FFF1FA217B307D8
:103CE000E407F50720F0A21BB30BE40BF50B661FEE
:103CF000771F881F991F1A9469F7609570958095B2
:103D000090959B01AC01BD01CF010895A29FB00128
:103D1000B39FC001A39F700D811D1124911DB29FFF
:103D2000700D811D1124911D0895AA1BBB1B51E12B
:103D300007C0AA1FBB1FA617B70710F0A61BB70B1B
:103D4000881F991F5A95A9F780959095BC01CD01C0
:103D50000895EE0FFF1F0590F491E02D099481E086
:0C3D600090E0F8940C94B41EF894FFCF8F
:103D6C00FFFFFFFF00E10000000000000000040066
:103D7C0000FC030018200100000000C1808100003D
:103D8C000000000000930A6C0BB40AA90AFA0AB8E6
:103D9C000AD60A00000000D90E660ADE0FDD0FB24B
:103DAC0015FCFF0000F41547656E65726174696E51
:103DBC006720776F726C642E2E2E000D0A005365EF
:0E3DCC0065643A200053454544203D20000028
:00000001FF
